{
  "contractName": "Certificates",
  "abi": [
    {
      "inputs": [],
      "payable": false,
      "stateMutability": "nonpayable",
      "type": "constructor"
    },
    {
      "constant": false,
      "inputs": [
        {
          "name": "staffId",
          "type": "uint256"
        },
        {
          "name": "certHolder",
          "type": "string"
        },
        {
          "name": "courseAttended",
          "type": "string"
        },
        {
          "name": "dateAttended",
          "type": "string"
        },
        {
          "name": "duration",
          "type": "string"
        },
        {
          "name": "issuer",
          "type": "string"
        },
        {
          "name": "issueDate",
          "type": "string"
        },
        {
          "name": "image",
          "type": "string"
        }
      ],
      "name": "addCertificate",
      "outputs": [],
      "payable": false,
      "stateMutability": "nonpayable",
      "type": "function"
    },
    {
      "constant": true,
      "inputs": [
        {
          "name": "hash",
          "type": "string"
        }
      ],
      "name": "getCertificate",
      "outputs": [
        {
          "name": "staffId",
          "type": "uint256"
        },
        {
          "name": "certHolder",
          "type": "string"
        },
        {
          "name": "courseAttended",
          "type": "string"
        },
        {
          "name": "dateAttended",
          "type": "string"
        },
        {
          "name": "duration",
          "type": "string"
        },
        {
          "name": "issuer",
          "type": "string"
        },
        {
          "name": "issueDate",
          "type": "string"
        }
      ],
      "payable": false,
      "stateMutability": "view",
      "type": "function"
    },
    {
      "constant": true,
      "inputs": [],
      "name": "countCertificates",
      "outputs": [
        {
          "name": "",
          "type": "uint256"
        }
      ],
      "payable": false,
      "stateMutability": "view",
      "type": "function"
    },
    {
      "constant": true,
      "inputs": [
        {
          "name": "Id",
          "type": "uint256"
        },
        {
          "name": "index",
          "type": "uint256"
        }
      ],
      "name": "certHolderToIndex",
      "outputs": [
        {
          "name": "certHolder",
          "type": "string"
        },
        {
          "name": "courseAttended",
          "type": "string"
        },
        {
          "name": "dateAttended",
          "type": "string"
        },
        {
          "name": "duration",
          "type": "string"
        },
        {
          "name": "issueDate",
          "type": "string"
        },
        {
          "name": "image",
          "type": "string"
        }
      ],
      "payable": false,
      "stateMutability": "view",
      "type": "function"
    },
    {
      "constant": true,
      "inputs": [
        {
          "name": "Id",
          "type": "uint256"
        }
      ],
      "name": "countHolderCertificates",
      "outputs": [
        {
          "name": "",
          "type": "uint256"
        }
      ],
      "payable": false,
      "stateMutability": "view",
      "type": "function"
    },
    {
      "constant": true,
      "inputs": [
        {
          "name": "hash",
          "type": "string"
        }
      ],
      "name": "verifyCertificate",
      "outputs": [
        {
          "name": "valid",
          "type": "bool"
        }
      ],
      "payable": false,
      "stateMutability": "view",
      "type": "function"
    }
  ],
  "bytecode": "0x608060405234801561001057600080fd5b5033600460006101000a81548173ffffffffffffffffffffffffffffffffffffffff021916908373ffffffffffffffffffffffffffffffffffffffff1602179055506118f3806100616000396000f300608060405260043610610078576000357c0100000000000000000000000000000000000000000000000000000000900463ffffffff1680632fbd66b51461007d578063388e6dca146100be5780633d21c1d8146102d55780638b23d87514610300578063d46d53c814610381578063ed0f2e751461064d575b600080fd5b34801561008957600080fd5b506100a860048036038101908080359060200190929190505050610952565b6040518082815260200191505060405180910390f35b3480156100ca57600080fd5b506102d360048036038101908080359060200190929190803590602001908201803590602001908080601f0160208091040260200160405190810160405280939291908181526020018383808284378201915050505050509192919290803590602001908201803590602001908080601f0160208091040260200160405190810160405280939291908181526020018383808284378201915050505050509192919290803590602001908201803590602001908080601f0160208091040260200160405190810160405280939291908181526020018383808284378201915050505050509192919290803590602001908201803590602001908080601f0160208091040260200160405190810160405280939291908181526020018383808284378201915050505050509192919290803590602001908201803590602001908080601f0160208091040260200160405190810160405280939291908181526020018383808284378201915050505050509192919290803590602001908201803590602001908080601f0160208091040260200160405190810160405280939291908181526020018383808284378201915050505050509192919290803590602001908201803590602001908080601f0160208091040260200160405190810160405280939291908181526020018383808284378201915050505050509192919290505050610971565b005b3480156102e157600080fd5b506102ea610d48565b6040518082815260200191505060405180910390f35b34801561030c57600080fd5b50610367600480360381019080803590602001908201803590602001908080601f0160208091040260200160405190810160405280939291908181526020018383808284378201915050505050509192919290505050610d55565b604051808215151515815260200191505060405180910390f35b34801561038d57600080fd5b506103b66004803603810190808035906020019092919080359060200190929190505050610dd7565b6040518080602001806020018060200180602001806020018060200187810387528d818151815260200191508051906020019080838360005b8381101561040a5780820151818401526020810190506103ef565b50505050905090810190601f1680156104375780820380516001836020036101000a031916815260200191505b5087810386528c818151815260200191508051906020019080838360005b83811015610470578082015181840152602081019050610455565b50505050905090810190601f16801561049d5780820380516001836020036101000a031916815260200191505b5087810385528b818151815260200191508051906020019080838360005b838110156104d65780820151818401526020810190506104bb565b50505050905090810190601f1680156105035780820380516001836020036101000a031916815260200191505b5087810384528a818151815260200191508051906020019080838360005b8381101561053c578082015181840152602081019050610521565b50505050905090810190601f1680156105695780820380516001836020036101000a031916815260200191505b50878103835289818151815260200191508051906020019080838360005b838110156105a2578082015181840152602081019050610587565b50505050905090810190601f1680156105cf5780820380516001836020036101000a031916815260200191505b50878103825288818151815260200191508051906020019080838360005b838110156106085780820151818401526020810190506105ed565b50505050905090810190601f1680156106355780820380516001836020036101000a031916815260200191505b509c5050505050505050505050505060405180910390f35b34801561065957600080fd5b506106b4600480360381019080803590602001908201803590602001908080601f01602080910402602001604051908101604052809392919081815260200183838082843782019150505050505091929192905050506112be565b6040518088815260200180602001806020018060200180602001806020018060200187810387528d818151815260200191508051906020019080838360005b8381101561070e5780820151818401526020810190506106f3565b50505050905090810190601f16801561073b5780820380516001836020036101000a031916815260200191505b5087810386528c818151815260200191508051906020019080838360005b83811015610774578082015181840152602081019050610759565b50505050905090810190601f1680156107a15780820380516001836020036101000a031916815260200191505b5087810385528b818151815260200191508051906020019080838360005b838110156107da5780820151818401526020810190506107bf565b50505050905090810190601f1680156108075780820380516001836020036101000a031916815260200191505b5087810384528a818151815260200191508051906020019080838360005b83811015610840578082015181840152602081019050610825565b50505050905090810190601f16801561086d5780820380516001836020036101000a031916815260200191505b50878103835289818151815260200191508051906020019080838360005b838110156108a657808201518184015260208101905061088b565b50505050905090810190601f1680156108d35780820380516001836020036101000a031916815260200191505b50878103825288818151815260200191508051906020019080838360005b8381101561090c5780820151818401526020810190506108f1565b50505050905090810190601f1680156109395780820380516001836020036101000a031916815260200191505b509d505050505050505050505050505060405180910390f35b6000806000838152602001908152602001600020805490509050919050565b6109796117dc565b600460009054906101000a900473ffffffffffffffffffffffffffffffffffffffff1673ffffffffffffffffffffffffffffffffffffffff163373ffffffffffffffffffffffffffffffffffffffff161415156109d557600080fd5b88816000018181525050878160200181905250868160400181905250858160600181905250848160800181905250838160a00181905250828160c00181905250818160e0018190525060038190806001815401808255809150509060018203906000526020600020906008020160009091929091909150600082015181600001556020820151816001019080519060200190610a72929190611822565b506040820151816002019080519060200190610a8f929190611822565b506060820151816003019080519060200190610aac929190611822565b506080820151816004019080519060200190610ac9929190611822565b5060a0820151816005019080519060200190610ae6929190611822565b5060c0820151816006019080519060200190610b03929190611822565b5060e0820151816007019080519060200190610b20929190611822565b505050506000808a81526020019081526020016000208190806001815401808255809150509060018203906000526020600020906008020160009091929091909150600082015181600001556020820151816001019080519060200190610b88929190611822565b506040820151816002019080519060200190610ba5929190611822565b506060820151816003019080519060200190610bc2929190611822565b506080820151816004019080519060200190610bdf929190611822565b5060a0820151816005019080519060200190610bfc929190611822565b5060c0820151816006019080519060200190610c19929190611822565b5060e0820151816007019080519060200190610c36929190611822565b5050505060016003805490500360028260e001516040518082805190602001908083835b602083101515610c7f5780518252602082019150602081019050602083039250610c5a565b6001836020036101000a0380198251168184511680821785525050505050509050019150509081526020016040518091039020819055506001808260e001516040518082805190602001908083835b602083101515610cf35780518252602082019150602081019050602083039250610cce565b6001836020036101000a038019825116818451168082178552505050505050905001915050908152602001604051809103902060006101000a81548160ff021916908315150217905550505050505050505050565b6000600380549050905090565b60006001826040518082805190602001908083835b602083101515610d8f5780518252602082019150602081019050602083039250610d6a565b6001836020036101000a038019825116818451168082178552505050505050905001915050908152602001604051809103902060009054906101000a900460ff169050919050565b60608060608060608060008089815260200190815260200160002087815481101515610dff57fe5b90600052602060002090600802016001016000808a815260200190815260200160002088815481101515610e2f57fe5b90600052602060002090600802016002016000808b815260200190815260200160002089815481101515610e5f57fe5b90600052602060002090600802016003016000808c81526020019081526020016000208a815481101515610e8f57fe5b90600052602060002090600802016004016000808d81526020019081526020016000208b815481101515610ebf57fe5b90600052602060002090600802016006016000808e81526020019081526020016000208c815481101515610eef57fe5b9060005260206000209060080201600701858054600181600116156101000203166002900480601f016020809104026020016040519081016040528092919081815260200182805460018160011615610100020316600290048015610f955780601f10610f6a57610100808354040283529160200191610f95565b820191906000526020600020905b815481529060010190602001808311610f7857829003601f168201915b50505050509550848054600181600116156101000203166002900480601f0160208091040260200160405190810160405280929190818152602001828054600181600116156101000203166002900480156110315780601f1061100657610100808354040283529160200191611031565b820191906000526020600020905b81548152906001019060200180831161101457829003601f168201915b50505050509450838054600181600116156101000203166002900480601f0160208091040260200160405190810160405280929190818152602001828054600181600116156101000203166002900480156110cd5780601f106110a2576101008083540402835291602001916110cd565b820191906000526020600020905b8154815290600101906020018083116110b057829003601f168201915b50505050509350828054600181600116156101000203166002900480601f0160208091040260200160405190810160405280929190818152602001828054600181600116156101000203166002900480156111695780601f1061113e57610100808354040283529160200191611169565b820191906000526020600020905b81548152906001019060200180831161114c57829003601f168201915b50505050509250818054600181600116156101000203166002900480601f0160208091040260200160405190810160405280929190818152602001828054600181600116156101000203166002900480156112055780601f106111da57610100808354040283529160200191611205565b820191906000526020600020905b8154815290600101906020018083116111e857829003601f168201915b50505050509150808054600181600116156101000203166002900480601f0160208091040260200160405190810160405280929190818152602001828054600181600116156101000203166002900480156112a15780601f10611276576101008083540402835291602001916112a1565b820191906000526020600020905b81548152906001019060200180831161128457829003601f168201915b505050505090509550955095509550955095509295509295509295565b600060608060608060608060006002896040518082805190602001908083835b60208310151561130357805182526020820191506020810190506020830392506112de565b6001836020036101000a038019825116818451168082178552505050505050905001915050908152602001604051809103902054905060038181548110151561134857fe5b90600052602060002090600802016000015460038281548110151561136957fe5b906000526020600020906008020160010160038381548110151561138957fe5b90600052602060002090600802016002016003848154811015156113a957fe5b90600052602060002090600802016003016003858154811015156113c957fe5b90600052602060002090600802016004016003868154811015156113e957fe5b906000526020600020906008020160050160038781548110151561140957fe5b9060005260206000209060080201600601858054600181600116156101000203166002900480601f0160208091040260200160405190810160405280929190818152602001828054600181600116156101000203166002900480156114af5780601f10611484576101008083540402835291602001916114af565b820191906000526020600020905b81548152906001019060200180831161149257829003601f168201915b50505050509550848054600181600116156101000203166002900480601f01602080910402602001604051908101604052809291908181526020018280546001816001161561010002031660029004801561154b5780601f106115205761010080835404028352916020019161154b565b820191906000526020600020905b81548152906001019060200180831161152e57829003601f168201915b50505050509450838054600181600116156101000203166002900480601f0160208091040260200160405190810160405280929190818152602001828054600181600116156101000203166002900480156115e75780601f106115bc576101008083540402835291602001916115e7565b820191906000526020600020905b8154815290600101906020018083116115ca57829003601f168201915b50505050509350828054600181600116156101000203166002900480601f0160208091040260200160405190810160405280929190818152602001828054600181600116156101000203166002900480156116835780601f1061165857610100808354040283529160200191611683565b820191906000526020600020905b81548152906001019060200180831161166657829003601f168201915b50505050509250818054600181600116156101000203166002900480601f01602080910402602001604051908101604052809291908181526020018280546001816001161561010002031660029004801561171f5780601f106116f45761010080835404028352916020019161171f565b820191906000526020600020905b81548152906001019060200180831161170257829003601f168201915b50505050509150808054600181600116156101000203166002900480601f0160208091040260200160405190810160405280929190818152602001828054600181600116156101000203166002900480156117bb5780601f10611790576101008083540402835291602001916117bb565b820191906000526020600020905b81548152906001019060200180831161179e57829003601f168201915b50505050509050975097509750975097509750975050919395979092949650565b6101006040519081016040528060008152602001606081526020016060815260200160608152602001606081526020016060815260200160608152602001606081525090565b828054600181600116156101000203166002900490600052602060002090601f016020900481019282601f1061186357805160ff1916838001178555611891565b82800160010185558215611891579182015b82811115611890578251825591602001919060010190611875565b5b50905061189e91906118a2565b5090565b6118c491905b808211156118c05760008160009055506001016118a8565b5090565b905600a165627a7a72305820a4be42a01838de7a345e3bd759e9813621f2647303374d4f4a20f33e2c59ef8c0029",
  "source": "pragma solidity ^0.4.22; \r\n\r\ncontract Certificates { \r\n    mapping (uint => certContents[]) private userCertList; //by staff id - all courses attended\r\n    mapping (string => bool) private verifyCertificates; //based on IPFS generated hash - true or false\r\n    mapping (string => uint) private indexCertificates; //IPFS hash to array index in certs\r\n    \r\n\tstruct certContents {\r\n\t    uint staffId; //unique identifier\r\n\t\tstring certHolder;\r\n    \tstring courseAttended;\r\n\t    string dateAttended;\r\n\t    string duration;\r\n\t    string issuer;\r\n\t    string issueDate;\r\n\t    string image; //store in IPFS, by hash (string)\r\n\t}\r\n\t\r\n\tcertContents[]  certs; \r\n\taddress private contractOwner;\r\n\t\r\n\tconstructor() public { \r\n\t\tcontractOwner = msg.sender; \r\n\t} \r\n\t\r\n\tmodifier onlyOwner() { \r\n\t\trequire(msg.sender == contractOwner); \r\n\t\t_;\r\n\t}\r\n\t\r\n\t//add a new certificate to the contract\r\n\tfunction addCertificate(uint staffId, string certHolder, string courseAttended, string dateAttended, string duration, string issuer, string issueDate, string image) public onlyOwner { \r\n        certContents memory tmp;\r\n        \r\n        tmp.staffId = staffId;\r\n        tmp.certHolder = certHolder;\r\n        tmp.courseAttended = courseAttended;\r\n        tmp.dateAttended = dateAttended;\r\n        tmp.duration = duration;\r\n        tmp.issuer = issuer;\r\n        tmp.issueDate = issueDate;\r\n        tmp.image = image;\r\n        \r\n\t\tcerts.push(tmp); \r\n\t\t\r\n\t\tuserCertList[staffId].push(tmp);\r\n\t\tindexCertificates[tmp.image] = certs.length - 1;\r\n\t\tverifyCertificates[tmp.image] = true;\r\n\t} \r\n\t\r\n\tfunction getCertificate(string hash) view public returns (uint staffId, string certHolder, string courseAttended, string dateAttended, string duration, string issuer, string issueDate) {\r\n        uint index = indexCertificates[hash];\r\n\t    return (\r\n\t        certs[index].staffId,\r\n\t        certs[index].certHolder, \r\n\t        certs[index].courseAttended,\r\n\t        certs[index].dateAttended,\r\n            certs[index].duration,\r\n            certs[index].issuer,\r\n            certs[index].issueDate\r\n\t        );\r\n\t} \r\n\t\r\n\tfunction countCertificates() view public returns (uint256) { \r\n\t\treturn certs.length; \r\n\t} \r\n\t\r\n\tfunction certHolderToIndex(uint Id, uint index) view public returns (string certHolder, string courseAttended, string dateAttended, string duration, string issueDate, string image) {\r\n\t    return (\r\n\t        userCertList[Id][index].certHolder, \r\n\t        userCertList[Id][index].courseAttended,\r\n\t        userCertList[Id][index].dateAttended,\r\n            userCertList[Id][index].duration,\r\n            userCertList[Id][index].issueDate,\r\n\t\t\tuserCertList[Id][index].image\r\n\t        );\r\n\t}\r\n\t\r\n\tfunction countHolderCertificates(uint Id) view public returns (uint256) {\r\n\t    return userCertList[Id].length;\r\n\t}\r\n\r\n\tfunction verifyCertificate(string hash) view public returns (bool valid) {\r\n\t    return verifyCertificates[hash];\r\n\t}\r\n}\t\t\t\t\t\t\t\t\t\t\t\t\t\t\t\r\n",
  "sourcePath": "C:\\Users\\Dickson Lim\\Desktop\\blockchain\\course\\indi_project\\Client-Side-Wallets\\truffle_test\\contracts\\Certificates.sol",
  "compiler": {
    "name": "solc",
    "version": "0.4.24+commit.e67f0147.Emscripten.clang"
  },
  "schemaVersion": "2.0.0",
  "updatedAt": "2018-07-01T10:56:55.734Z"
}